{
  "address": "0x50fA36b67daFdc52BDCF6077545b6E4Aa6f9b4db",
  "abi": [
    {
      "inputs": [],
      "stateMutability": "nonpayable",
      "type": "constructor"
    },
    {
      "anonymous": false,
      "inputs": [
        {
          "indexed": false,
          "internalType": "address",
          "name": "customer",
          "type": "address"
        },
        {
          "indexed": false,
          "internalType": "string",
          "name": "productName",
          "type": "string"
        },
        {
          "indexed": false,
          "internalType": "string",
          "name": "complaint",
          "type": "string"
        }
      ],
      "name": "BuyerRefunded",
      "type": "event"
    },
    {
      "anonymous": false,
      "inputs": [
        {
          "indexed": false,
          "internalType": "address",
          "name": "lodger",
          "type": "address"
        },
        {
          "indexed": false,
          "internalType": "string",
          "name": "product",
          "type": "string"
        },
        {
          "indexed": false,
          "internalType": "string",
          "name": "complaint",
          "type": "string"
        }
      ],
      "name": "ComplaintLodged",
      "type": "event"
    },
    {
      "anonymous": false,
      "inputs": [
        {
          "indexed": false,
          "internalType": "address",
          "name": "lodger",
          "type": "address"
        },
        {
          "indexed": false,
          "internalType": "address",
          "name": "arbitrator",
          "type": "address"
        },
        {
          "indexed": false,
          "internalType": "string",
          "name": "product",
          "type": "string"
        },
        {
          "indexed": false,
          "internalType": "string",
          "name": "judgement",
          "type": "string"
        }
      ],
      "name": "ComplaintResolved",
      "type": "event"
    },
    {
      "anonymous": false,
      "inputs": [
        {
          "indexed": false,
          "internalType": "address",
          "name": "vendor",
          "type": "address"
        }
      ],
      "name": "CustomerRegistered",
      "type": "event"
    },
    {
      "anonymous": false,
      "inputs": [
        {
          "indexed": false,
          "internalType": "address",
          "name": "vendor",
          "type": "address"
        },
        {
          "indexed": false,
          "internalType": "string",
          "name": "name",
          "type": "string"
        },
        {
          "indexed": false,
          "internalType": "bytes32",
          "name": "id",
          "type": "bytes32"
        },
        {
          "indexed": false,
          "internalType": "uint256",
          "name": "price",
          "type": "uint256"
        }
      ],
      "name": "TaskAdded",
      "type": "event"
    },
    {
      "anonymous": false,
      "inputs": [
        {
          "indexed": false,
          "internalType": "address",
          "name": "customer",
          "type": "address"
        },
        {
          "indexed": false,
          "internalType": "address",
          "name": "vendor",
          "type": "address"
        },
        {
          "indexed": false,
          "internalType": "uint256",
          "name": "commission",
          "type": "uint256"
        },
        {
          "indexed": false,
          "internalType": "string",
          "name": "productName",
          "type": "string"
        },
        {
          "indexed": false,
          "internalType": "bytes32",
          "name": "id",
          "type": "bytes32"
        }
      ],
      "name": "TaskPaid",
      "type": "event"
    },
    {
      "anonymous": false,
      "inputs": [
        {
          "indexed": false,
          "internalType": "address",
          "name": "vendor",
          "type": "address"
        },
        {
          "indexed": false,
          "internalType": "uint256",
          "name": "time",
          "type": "uint256"
        }
      ],
      "name": "VendorFlagged",
      "type": "event"
    },
    {
      "anonymous": false,
      "inputs": [
        {
          "indexed": false,
          "internalType": "address",
          "name": "vendor",
          "type": "address"
        },
        {
          "indexed": false,
          "internalType": "uint256",
          "name": "amount",
          "type": "uint256"
        }
      ],
      "name": "VendorPaid",
      "type": "event"
    },
    {
      "anonymous": false,
      "inputs": [
        {
          "indexed": false,
          "internalType": "address",
          "name": "vendor",
          "type": "address"
        }
      ],
      "name": "VendorRegistered",
      "type": "event"
    },
    {
      "anonymous": false,
      "inputs": [
        {
          "indexed": false,
          "internalType": "address",
          "name": "vendor",
          "type": "address"
        },
        {
          "indexed": false,
          "internalType": "uint256",
          "name": "time",
          "type": "uint256"
        }
      ],
      "name": "VendorUnflagged",
      "type": "event"
    },
    {
      "anonymous": false,
      "inputs": [
        {
          "indexed": false,
          "internalType": "uint256",
          "name": "amount",
          "type": "uint256"
        },
        {
          "indexed": false,
          "internalType": "uint256",
          "name": "when",
          "type": "uint256"
        }
      ],
      "name": "Withdrawal",
      "type": "event"
    },
    {
      "inputs": [
        {
          "internalType": "string",
          "name": "name",
          "type": "string"
        },
        {
          "internalType": "string",
          "name": "email",
          "type": "string"
        },
        {
          "internalType": "string",
          "name": "phoneNumber",
          "type": "string"
        },
        {
          "internalType": "string",
          "name": "homeAddress",
          "type": "string"
        },
        {
          "internalType": "string",
          "name": "role",
          "type": "string"
        },
        {
          "internalType": "string",
          "name": "picture",
          "type": "string"
        }
      ],
      "name": "RegisterCustomer",
      "outputs": [],
      "stateMutability": "nonpayable",
      "type": "function"
    },
    {
      "inputs": [
        {
          "internalType": "string",
          "name": "name",
          "type": "string"
        },
        {
          "internalType": "string",
          "name": "email",
          "type": "string"
        },
        {
          "internalType": "string",
          "name": "phoneNumber",
          "type": "string"
        },
        {
          "internalType": "string",
          "name": "homeAddress",
          "type": "string"
        },
        {
          "internalType": "string",
          "name": "role",
          "type": "string"
        },
        {
          "internalType": "string",
          "name": "picture",
          "type": "string"
        },
        {
          "internalType": "string",
          "name": "service",
          "type": "string"
        },
        {
          "internalType": "string",
          "name": "file1",
          "type": "string"
        },
        {
          "internalType": "string",
          "name": "file2",
          "type": "string"
        },
        {
          "internalType": "string",
          "name": "file3",
          "type": "string"
        }
      ],
      "name": "RegisterVendor",
      "outputs": [],
      "stateMutability": "nonpayable",
      "type": "function"
    },
    {
      "inputs": [],
      "name": "addArbitrator",
      "outputs": [],
      "stateMutability": "nonpayable",
      "type": "function"
    },
    {
      "inputs": [
        {
          "internalType": "string",
          "name": "name",
          "type": "string"
        },
        {
          "internalType": "string",
          "name": "description",
          "type": "string"
        },
        {
          "internalType": "uint256",
          "name": "price",
          "type": "uint256"
        },
        {
          "internalType": "address",
          "name": "vendor",
          "type": "address"
        }
      ],
      "name": "addTask",
      "outputs": [],
      "stateMutability": "nonpayable",
      "type": "function"
    },
    {
      "inputs": [
        {
          "internalType": "uint256",
          "name": "",
          "type": "uint256"
        }
      ],
      "name": "allVendors",
      "outputs": [
        {
          "internalType": "address",
          "name": "",
          "type": "address"
        }
      ],
      "stateMutability": "view",
      "type": "function"
    },
    {
      "inputs": [],
      "name": "commission_rate",
      "outputs": [
        {
          "internalType": "uint256",
          "name": "",
          "type": "uint256"
        }
      ],
      "stateMutability": "view",
      "type": "function"
    },
    {
      "inputs": [
        {
          "internalType": "address",
          "name": "",
          "type": "address"
        }
      ],
      "name": "customer_C",
      "outputs": [
        {
          "internalType": "bool",
          "name": "",
          "type": "bool"
        }
      ],
      "stateMutability": "view",
      "type": "function"
    },
    {
      "inputs": [
        {
          "internalType": "address",
          "name": "",
          "type": "address"
        }
      ],
      "name": "customers",
      "outputs": [
        {
          "internalType": "string",
          "name": "name",
          "type": "string"
        },
        {
          "internalType": "string",
          "name": "email",
          "type": "string"
        },
        {
          "internalType": "string",
          "name": "phoneNumber",
          "type": "string"
        },
        {
          "internalType": "string",
          "name": "homeAddress",
          "type": "string"
        },
        {
          "internalType": "string",
          "name": "role",
          "type": "string"
        },
        {
          "internalType": "string",
          "name": "picture",
          "type": "string"
        },
        {
          "internalType": "address",
          "name": "account",
          "type": "address"
        }
      ],
      "stateMutability": "view",
      "type": "function"
    },
    {
      "inputs": [
        {
          "internalType": "string",
          "name": "str1",
          "type": "string"
        },
        {
          "internalType": "address",
          "name": "str2",
          "type": "address"
        }
      ],
      "name": "generateID",
      "outputs": [
        {
          "internalType": "bytes32",
          "name": "",
          "type": "bytes32"
        }
      ],
      "stateMutability": "pure",
      "type": "function"
    },
    {
      "inputs": [],
      "name": "getAllTasks",
      "outputs": [
        {
          "components": [
            {
              "internalType": "bytes32",
              "name": "id",
              "type": "bytes32"
            },
            {
              "internalType": "string",
              "name": "name",
              "type": "string"
            },
            {
              "internalType": "string",
              "name": "description",
              "type": "string"
            },
            {
              "internalType": "uint256",
              "name": "price",
              "type": "uint256"
            },
            {
              "internalType": "address",
              "name": "vendor",
              "type": "address"
            },
            {
              "internalType": "address",
              "name": "customer",
              "type": "address"
            },
            {
              "internalType": "bool",
              "name": "completed",
              "type": "bool"
            }
          ],
          "internalType": "struct LinkContract.Task[]",
          "name": "",
          "type": "tuple[]"
        }
      ],
      "stateMutability": "view",
      "type": "function"
    },
    {
      "inputs": [],
      "name": "getAllVendors",
      "outputs": [
        {
          "internalType": "address[]",
          "name": "",
          "type": "address[]"
        }
      ],
      "stateMutability": "view",
      "type": "function"
    },
    {
      "inputs": [
        {
          "internalType": "bytes32",
          "name": "id",
          "type": "bytes32"
        }
      ],
      "name": "getTask",
      "outputs": [
        {
          "components": [
            {
              "internalType": "bytes32",
              "name": "id",
              "type": "bytes32"
            },
            {
              "internalType": "string",
              "name": "name",
              "type": "string"
            },
            {
              "internalType": "string",
              "name": "description",
              "type": "string"
            },
            {
              "internalType": "uint256",
              "name": "price",
              "type": "uint256"
            },
            {
              "internalType": "address",
              "name": "vendor",
              "type": "address"
            },
            {
              "internalType": "address",
              "name": "customer",
              "type": "address"
            },
            {
              "internalType": "bool",
              "name": "completed",
              "type": "bool"
            }
          ],
          "internalType": "struct LinkContract.Task",
          "name": "",
          "type": "tuple"
        }
      ],
      "stateMutability": "view",
      "type": "function"
    },
    {
      "inputs": [
        {
          "internalType": "string",
          "name": "product_name",
          "type": "string"
        },
        {
          "internalType": "string",
          "name": "complaint",
          "type": "string"
        }
      ],
      "name": "lodgeComplaint",
      "outputs": [],
      "stateMutability": "nonpayable",
      "type": "function"
    },
    {
      "inputs": [],
      "name": "owner",
      "outputs": [
        {
          "internalType": "address",
          "name": "",
          "type": "address"
        }
      ],
      "stateMutability": "view",
      "type": "function"
    },
    {
      "inputs": [
        {
          "internalType": "string",
          "name": "name",
          "type": "string"
        }
      ],
      "name": "payForTask",
      "outputs": [],
      "stateMutability": "payable",
      "type": "function"
    },
    {
      "inputs": [],
      "name": "paySeller",
      "outputs": [],
      "stateMutability": "nonpayable",
      "type": "function"
    },
    {
      "inputs": [
        {
          "internalType": "address",
          "name": "",
          "type": "address"
        }
      ],
      "name": "profiles",
      "outputs": [
        {
          "internalType": "string",
          "name": "name",
          "type": "string"
        },
        {
          "internalType": "string",
          "name": "email",
          "type": "string"
        },
        {
          "internalType": "string",
          "name": "phoneNumber",
          "type": "string"
        },
        {
          "internalType": "string",
          "name": "homeAddress",
          "type": "string"
        },
        {
          "internalType": "string",
          "name": "role",
          "type": "string"
        },
        {
          "internalType": "string",
          "name": "picture",
          "type": "string"
        },
        {
          "internalType": "address",
          "name": "account",
          "type": "address"
        }
      ],
      "stateMutability": "view",
      "type": "function"
    },
    {
      "inputs": [
        {
          "internalType": "address",
          "name": "customer",
          "type": "address"
        },
        {
          "internalType": "string",
          "name": "judgement",
          "type": "string"
        }
      ],
      "name": "resolveComplaint",
      "outputs": [],
      "stateMutability": "nonpayable",
      "type": "function"
    },
    {
      "inputs": [
        {
          "internalType": "address",
          "name": "customer",
          "type": "address"
        },
        {
          "internalType": "string",
          "name": "judgement",
          "type": "string"
        }
      ],
      "name": "returnBuyerFunds",
      "outputs": [],
      "stateMutability": "nonpayable",
      "type": "function"
    },
    {
      "inputs": [
        {
          "internalType": "uint256",
          "name": "_rate",
          "type": "uint256"
        }
      ],
      "name": "setCommissionRate",
      "outputs": [],
      "stateMutability": "nonpayable",
      "type": "function"
    },
    {
      "inputs": [
        {
          "internalType": "uint256",
          "name": "",
          "type": "uint256"
        }
      ],
      "name": "taskList",
      "outputs": [
        {
          "internalType": "bytes32",
          "name": "id",
          "type": "bytes32"
        },
        {
          "internalType": "string",
          "name": "name",
          "type": "string"
        },
        {
          "internalType": "string",
          "name": "description",
          "type": "string"
        },
        {
          "internalType": "uint256",
          "name": "price",
          "type": "uint256"
        },
        {
          "internalType": "address",
          "name": "vendor",
          "type": "address"
        },
        {
          "internalType": "address",
          "name": "customer",
          "type": "address"
        },
        {
          "internalType": "bool",
          "name": "completed",
          "type": "bool"
        }
      ],
      "stateMutability": "view",
      "type": "function"
    },
    {
      "inputs": [
        {
          "internalType": "address",
          "name": "",
          "type": "address"
        }
      ],
      "name": "vendor_C",
      "outputs": [
        {
          "internalType": "bool",
          "name": "",
          "type": "bool"
        }
      ],
      "stateMutability": "view",
      "type": "function"
    },
    {
      "inputs": [
        {
          "internalType": "address",
          "name": "",
          "type": "address"
        }
      ],
      "name": "vendors",
      "outputs": [
        {
          "internalType": "string",
          "name": "service",
          "type": "string"
        },
        {
          "internalType": "string",
          "name": "file1",
          "type": "string"
        },
        {
          "internalType": "string",
          "name": "file2",
          "type": "string"
        },
        {
          "internalType": "string",
          "name": "file3",
          "type": "string"
        },
        {
          "internalType": "address",
          "name": "account",
          "type": "address"
        },
        {
          "internalType": "uint256",
          "name": "totalMoney",
          "type": "uint256"
        },
        {
          "internalType": "bool",
          "name": "flagged",
          "type": "bool"
        }
      ],
      "stateMutability": "view",
      "type": "function"
    },
    {
      "inputs": [],
      "name": "withdraw",
      "outputs": [],
      "stateMutability": "payable",
      "type": "function"
    },
    {
      "inputs": [],
      "name": "withdrawCommission",
      "outputs": [],
      "stateMutability": "nonpayable",
      "type": "function"
    }
  ],
  "transactionHash": "0x5d0470673cabcedd76c9b04e3f8dbc82e00f30c122a8bc202d1d85bee5094338",
  "args": [],
  "numDeployments": 2,
  "solcInputHash": "5c7cbab363dc1e08cfb29fcca2ad6b54",
  "bytecode": "0x60806040526000600c5534801561001557600080fd5b50600080546001600160a01b03191633179055600a80556137958061003b6000396000f3fe6080604052600436106101655760003560e01c80635e0b421e116100d1578063bbe156271161008a578063d9c4416f11610064578063d9c4416f14610479578063dd4f0fb5146104a5578063ec4a3a96146104c5578063fe4c9d05146104e557600080fd5b8063bbe1562714610419578063d587384114610439578063d5bb87f31461045957600080fd5b80635e0b421e146103185780636a0d27601461033a578063779900b41461037a57806385d947f61461039c5780638da5cb5b146103cc578063a0c97bce1461040457600080fd5b806327e30c361161012357806327e30c36146102425780632a1c52a514610275578063336989ae146102a8578063336f1b12146102db5780633ccfd60b146102fb5780633e25e8371461030357600080fd5b8062c851751461016a57806306137c3e1461019d57806315a29035146101bf578063188fdbdc146101ec57806319fac8fd1461020257806326f67a3c14610222575b600080fd5b34801561017657600080fd5b5061018a610185366004612ba3565b6104f8565b6040519081526020015b60405180910390f35b3480156101a957600080fd5b506101bd6101b8366004612bf1565b61052c565b005b3480156101cb57600080fd5b506101df6101da366004612c3f565b6106dc565b6040516101949190612d25565b3480156101f857600080fd5b5061018a600a5481565b34801561020e57600080fd5b506101bd61021d366004612c3f565b610a96565b34801561022e57600080fd5b506101bd61023d366004612bf1565b610ac5565b34801561024e57600080fd5b5061026261025d366004612d3f565b611042565b6040516101949796959493929190612d5a565b34801561028157600080fd5b50610295610290366004612c3f565b6112ab565b6040516101949796959493929190612dd2565b3480156102b457600080fd5b506102c86102c3366004612d3f565b61141d565b6040516101949796959493929190612e30565b3480156102e757600080fd5b506101bd6102f6366004612ec2565b611790565b6101bd611a79565b34801561030f57600080fd5b506101bd611b67565b34801561032457600080fd5b5061032d611c05565b604051610194919061304d565b34801561034657600080fd5b5061036a610355366004612d3f565b60096020526000908152604090205460ff1681565b6040519015158152602001610194565b34801561038657600080fd5b5061038f611c67565b604051610194919061309a565b3480156103a857600080fd5b5061036a6103b7366004612d3f565b60086020526000908152604090205460ff1681565b3480156103d857600080fd5b506000546103ec906001600160a01b031681565b6040516001600160a01b039091168152602001610194565b34801561041057600080fd5b506101bd611e38565b34801561042557600080fd5b506102c8610434366004612d3f565b612002565b34801561044557600080fd5b506101bd6104543660046130fc565b61201d565b34801561046557600080fd5b506101bd610474366004613156565b6121d4565b34801561048557600080fd5b506101bd336000908152600760205260409020805460ff19166001179055565b3480156104b157600080fd5b506103ec6104c0366004612c3f565b6124df565b3480156104d157600080fd5b506101bd6104e03660046131d4565b612509565b6101bd6104f33660046132c9565b612777565b6000828260405160200161050d929190613306565b6040516020818303038152906040528051906020012090505b92915050565b3360009081526007602052604090205460ff166105905760405162461bcd60e51b815260206004820152601a60248201527f596f7520617265206e6f7420616e2061726269747261746f722100000000000060448201526064015b60405180910390fd5b6001600160a01b03821660009081526006602052604090206003016105b582826133c6565b506001600160a01b0382166000908152600660205260408082206005808201805460ff19166001908117909155925190926105f1920190613486565b908152604080519182900360209081018320546000818152600480845284822001546001600160a01b039081168252600384528482206006908101805460ff1916905590891682529092529190209092507f868196e2d02fc4c0717aea242ff24e9b7bd61a0d17bfd0cbbf846836561318ab9161067791869133916001019087906134fc565b60405180910390a16000818152600460208181526040928390209091015482516001600160a01b03909116815242918101919091527f894ec658337706382391ce16e76c54abd33abd7085d7d1245fc5366dfe38f612910160405180910390a1505050565b6040805160e08101825260008082526060602083018190529282018390529181018290526080810182905260a0810182905260c08101919091528160001a60f81b6001600160f81b0319166000036107465760405162461bcd60e51b8152600401610587906135b8565b6000600460008481526020019081526020016000206040518060e0016040529081600082015481526020016001820180546107809061333d565b80601f01602080910402602001604051908101604052809291908181526020018280546107ac9061333d565b80156107f95780601f106107ce576101008083540402835291602001916107f9565b820191906000526020600020905b8154815290600101906020018083116107dc57829003601f168201915b505050505081526020016002820180546108129061333d565b80601f016020809104026020016040519081016040528092919081815260200182805461083e9061333d565b801561088b5780601f106108605761010080835404028352916020019161088b565b820191906000526020600020905b81548152906001019060200180831161086e57829003601f168201915b50505091835250506003820154602082015260048201546001600160a01b0390811660408301526005909201548083166060830152600160a01b900460ff1615156080918201528201519192501615806108e757506060810151155b156109045760405162461bcd60e51b8152600401610587906135b8565b600460008481526020019081526020016000206040518060e00160405290816000820154815260200160018201805461093c9061333d565b80601f01602080910402602001604051908101604052809291908181526020018280546109689061333d565b80156109b55780601f1061098a576101008083540402835291602001916109b5565b820191906000526020600020905b81548152906001019060200180831161099857829003601f168201915b505050505081526020016002820180546109ce9061333d565b80601f01602080910402602001604051908101604052809291908181526020018280546109fa9061333d565b8015610a475780601f10610a1c57610100808354040283529160200191610a47565b820191906000526020600020905b815481529060010190602001808311610a2a57829003601f168201915b50505091835250506003820154602082015260048201546001600160a01b0390811660408301526005909201549182166060820152600160a01b90910460ff1615156080909101529392505050565b6000546001600160a01b03163314610ac05760405162461bcd60e51b8152600401610587906135e5565b600a55565b3360009081526007602052604090205460ff16610b245760405162461bcd60e51b815260206004820152601a60248201527f596f7520617265206e6f7420616e2061726269747261746f72210000000000006044820152606401610587565b6001600160a01b038083166000908152600660209081526040808320815160c0810190925280549094168152600184018054939491939192840191610b689061333d565b80601f0160208091040260200160405190810160405280929190818152602001828054610b949061333d565b8015610be15780601f10610bb657610100808354040283529160200191610be1565b820191906000526020600020905b815481529060010190602001808311610bc457829003601f168201915b50505050508152602001600282018054610bfa9061333d565b80601f0160208091040260200160405190810160405280929190818152602001828054610c269061333d565b8015610c735780601f10610c4857610100808354040283529160200191610c73565b820191906000526020600020905b815481529060010190602001808311610c5657829003601f168201915b50505050508152602001600382018054610c8c9061333d565b80601f0160208091040260200160405190810160405280929190818152602001828054610cb89061333d565b8015610d055780601f10610cda57610100808354040283529160200191610d05565b820191906000526020600020905b815481529060010190602001808311610ce857829003601f168201915b5050509183525050600482015460208083019190915260059092015460ff16151560409182015260608301859052600160a084018190526001600160a01b0387811660009081526006855292909220845181546001600160a01b03191693169290921782559183015192935083929091820190610d8290826133c6565b5060408201516002820190610d9790826133c6565b5060608201516003820190610dac90826133c6565b506080820151816004015560a08201518160050160006101000a81548160ff02191690831515021790555090505060006004600060058460200151604051610df49190613612565b9081526020016040518091039020548152602001908152602001600020600301549050836001600160a01b03166108fc829081150290604051600060405180830381858888f19350505050158015610e50573d6000803e3d6000fd5b5060006064600a5483610e639190613644565b610e6d919061365b565b9050610e79818361367d565b600360006004600060058860200151604051610e959190613612565b908152602001604051809103902054815260200190815260200160002060040160009054906101000a90046001600160a01b03166001600160a01b03166001600160a01b031681526020019081526020016000206005016000828254610efb919061367d565b9250508190555080600c6000828254610f14919061367d565b9250508190555060006004600060058660200151604051610f359190613612565b908152602001604051809103902054815260200190815260200160002060050160146101000a81548160ff0219169083151502179055506000600360006004600060058860200151604051610f8a9190613612565b908152602001604051809103902054815260200190815260200160002060040160009054906101000a90046001600160a01b03166001600160a01b03166001600160a01b0316815260200190815260200160002060060160006101000a81548160ff0219169083151502179055507f397c5fb78a2fec39f3c4da7d29ce7994c747edcae7a7d97c9f36c4892c6c67d1858460200151856040015160405161103393929190613690565b60405180910390a15050505050565b60036020526000908152604090208054819061105d9061333d565b80601f01602080910402602001604051908101604052809291908181526020018280546110899061333d565b80156110d65780601f106110ab576101008083540402835291602001916110d6565b820191906000526020600020905b8154815290600101906020018083116110b957829003601f168201915b5050505050908060010180546110eb9061333d565b80601f01602080910402602001604051908101604052809291908181526020018280546111179061333d565b80156111645780601f1061113957610100808354040283529160200191611164565b820191906000526020600020905b81548152906001019060200180831161114757829003601f168201915b5050505050908060020180546111799061333d565b80601f01602080910402602001604051908101604052809291908181526020018280546111a59061333d565b80156111f25780601f106111c7576101008083540402835291602001916111f2565b820191906000526020600020905b8154815290600101906020018083116111d557829003601f168201915b5050505050908060030180546112079061333d565b80601f01602080910402602001604051908101604052809291908181526020018280546112339061333d565b80156112805780601f1061125557610100808354040283529160200191611280565b820191906000526020600020905b81548152906001019060200180831161126357829003601f168201915b505050506004830154600584015460069094015492936001600160a01b039091169290915060ff1687565b600d81815481106112bb57600080fd5b600091825260209091206006909102018054600182018054919350906112e09061333d565b80601f016020809104026020016040519081016040528092919081815260200182805461130c9061333d565b80156113595780601f1061132e57610100808354040283529160200191611359565b820191906000526020600020905b81548152906001019060200180831161133c57829003601f168201915b50505050509080600201805461136e9061333d565b80601f016020809104026020016040519081016040528092919081815260200182805461139a9061333d565b80156113e75780601f106113bc576101008083540402835291602001916113e7565b820191906000526020600020905b8154815290600101906020018083116113ca57829003601f168201915b5050505060038301546004840154600590940154929390926001600160a01b03918216925090811690600160a01b900460ff1687565b6001602052600090815260409020805481906114389061333d565b80601f01602080910402602001604051908101604052809291908181526020018280546114649061333d565b80156114b15780601f10611486576101008083540402835291602001916114b1565b820191906000526020600020905b81548152906001019060200180831161149457829003601f168201915b5050505050908060010180546114c69061333d565b80601f01602080910402602001604051908101604052809291908181526020018280546114f29061333d565b801561153f5780601f106115145761010080835404028352916020019161153f565b820191906000526020600020905b81548152906001019060200180831161152257829003601f168201915b5050505050908060020180546115549061333d565b80601f01602080910402602001604051908101604052809291908181526020018280546115809061333d565b80156115cd5780601f106115a2576101008083540402835291602001916115cd565b820191906000526020600020905b8154815290600101906020018083116115b057829003601f168201915b5050505050908060030180546115e29061333d565b80601f016020809104026020016040519081016040528092919081815260200182805461160e9061333d565b801561165b5780601f106116305761010080835404028352916020019161165b565b820191906000526020600020905b81548152906001019060200180831161163e57829003601f168201915b5050505050908060040180546116709061333d565b80601f016020809104026020016040519081016040528092919081815260200182805461169c9061333d565b80156116e95780601f106116be576101008083540402835291602001916116e9565b820191906000526020600020905b8154815290600101906020018083116116cc57829003601f168201915b5050505050908060050180546116fe9061333d565b80601f016020809104026020016040519081016040528092919081815260200182805461172a9061333d565b80156117775780601f1061174c57610100808354040283529160200191611777565b820191906000526020600020905b81548152906001019060200180831161175a57829003601f168201915b505050600690930154919250506001600160a01b031687565b3360009081526008602052604090205460ff16806117bd57503360009081526009602052604090205460ff165b1561180a5760405162461bcd60e51b815260206004820152601a60248201527f596f752061726520616c726561647920726567697374657265640000000000006044820152606401610587565b6040805160e080820183528c825260208083018d90528284018c905260608084018c905260808085018c905260a08086018c90523360c0808801829052885196870189528c87528686018c90528689018b9052938601899052918501829052600090850181905291840182905281526002909152929092208151919291839190819061189690826133c6565b50602082015160018201906118ab90826133c6565b50604082015160028201906118c090826133c6565b50606082015160038201906118d590826133c6565b50608082015160048201906118ea90826133c6565b5060a082015160058201906118ff90826133c6565b5060c09190910151600690910180546001600160a01b0319166001600160a01b039092169190911790553360009081526003602052604090208151829190819061194990826133c6565b506020820151600182019061195e90826133c6565b506040820151600282019061197390826133c6565b506060820151600382019061198890826133c6565b5060808201516004820180546001600160a01b039092166001600160a01b031992831617905560a0830151600583015560c0909201516006909101805491151560ff199283161790553360008181526008602052604080822080549094166001908117909455600e805494850181559091527fbb7b4a454dc3493923482f07822329ed19e8244eff582cc204f8554c3620c3fd90920180549093168117909255517f6b151c6084a25b1831f4322980152980cbe16e87815c95af76a1ef3b1255ec4891611a63916001600160a01b0391909116815260200190565b60405180910390a1505050505050505050505050565b6000546001600160a01b03163314611aa35760405162461bcd60e51b8152600401610587906135e5565b4715611af15760405162461bcd60e51b815260206004820152601a60248201527f596f752073686f756c642068617665206d6f7265206d6f6e65790000000000006044820152606401610587565b600080546040516001600160a01b03909116914780156108fc02929091818181858888f19350505050158015611b2b573d6000803e3d6000fd5b50604080514781524260208201527fbf2ed60bd5b5965d685680c01195c9514e4382e28e3a5a2d2d5244bf59411b9391015b60405180910390a1565b6000546001600160a01b03163314611b915760405162461bcd60e51b8152600401610587906135e5565b60008054600c546040516001600160a01b039092169281156108fc029290818181858888f19350505050158015611bcc573d6000803e3d6000fd5b50600c54604080519182524260208301527fbf2ed60bd5b5965d685680c01195c9514e4382e28e3a5a2d2d5244bf59411b939101611b5d565b6060600e805480602002602001604051908101604052809291908181526020018280548015611c5d57602002820191906000526020600020905b81546001600160a01b03168152600190910190602001808311611c3f575b5050505050905090565b6060600d805480602002602001604051908101604052809291908181526020016000905b82821015611e2f57838290600052602060002090600602016040518060e001604052908160008201548152602001600182018054611cc89061333d565b80601f0160208091040260200160405190810160405280929190818152602001828054611cf49061333d565b8015611d415780601f10611d1657610100808354040283529160200191611d41565b820191906000526020600020905b815481529060010190602001808311611d2457829003601f168201915b50505050508152602001600282018054611d5a9061333d565b80601f0160208091040260200160405190810160405280929190818152602001828054611d869061333d565b8015611dd35780601f10611da857610100808354040283529160200191611dd3565b820191906000526020600020905b815481529060010190602001808311611db657829003601f168201915b5050509183525050600382015460208083019190915260048301546001600160a01b0390811660408401526005909301549283166060830152600160a01b90920460ff1615156080909101529082526001929092019101611c8b565b50505050905090565b336000908152600360205260408120600501549003611eb35760405162461bcd60e51b815260206004820152603160248201527f596f7520617265206e6f7420612076656e646f72206f7220776520646f206e6f60448201527074206861766520796f7572206d6f6e657960781b6064820152608401610587565b3360009081526003602052604090206006015460ff1615611f3c5760405162461bcd60e51b815260206004820152603760248201527f536f6d656f6e65206c6f64676564206120636f6d706c61696e742061626f757460448201527f20796f752c206177616974207265736f6c7574696f6e210000000000000000006064820152608401610587565b3360008181526003602052604080822060050154905181156108fc0292818181858888f19350505050158015611f76573d6000803e3d6000fd5b5033600081815260036020908152604091829020600501548251938452908301527f7abe29458d0bbcb7c68753e6f3bf9cc0c1fad7cd0c4d37dc06e31e3cdefc1a81910160405180910390a133600090815260036020526040812060050154600b805491929091611fe890849061367d565b909155505033600090815260036020526040812060050155565b6002602052600090815260409020805481906114389061333d565b6040805160c081018252338082526020808301868152838501869052845180830186526000808252606086019190915242608086015260a085018190529283526006909152929020815181546001600160a01b0319166001600160a01b03909116178155915190918291600182019061209690826133c6565b50604082015160028201906120ab90826133c6565b50606082015160038201906120c090826133c6565b506080820151600482015560a0909101516005918201805460ff1916911515919091179055604051600091906120f7908690613612565b908152604080519182900360209081018320546000818152600480845284822001546001600160a01b031681526003909252919020600601805460ff1916600117905591507f34aa7adf58f0e78058ff744546bad0ec57627a6c81b1f16d436c43d62236f4289061216d90339087908790613690565b60405180910390a16000818152600460208181526040928390209091015482516001600160a01b03909116815242918101919091527f44bb4e2cdc3b709b84d8491b436854ca52467b950ca59004ca53ec0b4710e65591015b60405180910390a150505050565b3360009081526009602052604090205460ff166122335760405162461bcd60e51b815260206004820152601760248201527f596f7520617265206e6f74206120637573746f6d6572210000000000000000006044820152606401610587565b6001600160a01b03811660009081526008602052604090205460ff1615156001146122a05760405162461bcd60e51b815260206004820152601f60248201527f5468652076656e646f722061646472657373206973206e6f742076616c6964006044820152606401610587565b60006122ac85836104f8565b6040805160e0810182528281526020808201898152828401899052606083018890526001600160a01b03871660808401523360a0840152600060c08401819052858152600490925292902081518155915192935091829190600182019061231390826133c6565b506040820151600282019061232890826133c6565b506060820151600382015560808201516004820180546001600160a01b039283166001600160a01b031990911617905560a08301516005928301805460c0909501511515600160a01b026001600160a81b031990951691909216179290921790915560405183919061239b908990613612565b90815260405190819003602090810190912091909155600d8054600181018255600091909152825160069091027fd7b6990105719101dabeb77144f2a3385c8033acd3af97e9423a695e81ad1eb581019182559183015183927fd7b6990105719101dabeb77144f2a3385c8033acd3af97e9423a695e81ad1eb6019061242190826133c6565b506040820151600282019061243690826133c6565b506060820151600382015560808201516004820180546001600160a01b0319166001600160a01b0392831617905560a08301516005909201805460c090940151929091166001600160a81b031990931692909217600160a01b911515919091021790556040517fc8572c20480ed422b0c928488702563f29ebcf6dbf70e3969a2be23586ac146d906124cf9085908990869089906136d0565b60405180910390a1505050505050565b600e81815481106124ef57600080fd5b6000918252602090912001546001600160a01b0316905081565b3360009081526008602052604090205460ff168061253657503360009081526009602052604090205460ff165b156125835760405162461bcd60e51b815260206004820152601a60248201527f596f752061726520616c726561647920726567697374657265640000000000006044820152606401610587565b6040805160e0810182528781526020808201889052818301879052606082018690526080820185905260a082018490523360c083018190526000908152600190915291909120815182919081906125da90826133c6565b50602082015160018201906125ef90826133c6565b506040820151600282019061260490826133c6565b506060820151600382019061261990826133c6565b506080820151600482019061262e90826133c6565b5060a0820151600582019061264390826133c6565b5060c09190910151600690910180546001600160a01b0319166001600160a01b039092169190911790553360009081526002602052604090208151829190819061268d90826133c6565b50602082015160018201906126a290826133c6565b50604082015160028201906126b790826133c6565b50606082015160038201906126cc90826133c6565b50608082015160048201906126e190826133c6565b5060a082015160058201906126f690826133c6565b5060c09190910151600690910180546001600160a01b0319166001600160a01b0390921691909117905533600081815260096020908152604091829020805460ff1916600117905590519182527f155e8619f4d23b96769599cb9af87da3e06a360082869c18578011da9a06e670910160405180910390a150505050505050565b60006005826040516127899190613612565b9081526040519081900360200190205490508060001a60f81b6001600160f81b0319166000036127cb5760405162461bcd60e51b8152600401610587906135b8565b6000600460008381526020019081526020016000206040518060e0016040529081600082015481526020016001820180546128059061333d565b80601f01602080910402602001604051908101604052809291908181526020018280546128319061333d565b801561287e5780601f106128535761010080835404028352916020019161287e565b820191906000526020600020905b81548152906001019060200180831161286157829003601f168201915b505050505081526020016002820180546128979061333d565b80601f01602080910402602001604051908101604052809291908181526020018280546128c39061333d565b80156129105780601f106128e557610100808354040283529160200191612910565b820191906000526020600020905b8154815290600101906020018083116128f357829003601f168201915b50505091835250506003820154602082015260048201546001600160a01b0390811660408301526005909201548083166060830152600160a01b900460ff16151560809182015282015191925016158061296c57506060810151155b156129895760405162461bcd60e51b8152600401610587906135b8565b80606001513410156129d25760405162461bcd60e51b8152602060048201526012602482015271496e73756666696369656e742066756e647360701b6044820152606401610587565b60006129e2348360800151612a49565b600084815260046020908152604091829020600501805460ff60a01b1916600160a01b17905560808501519085015191519293507f532147208c28e665140924c9e08d7f925eb75f97e8b7c225477a74ce742e17f1926121c6923392918691908990613707565b6000806064600a5485612a5c9190613644565b612a66919061365b565b90506000612a74828661367d565b6001600160a01b038516600090815260036020526040812060050180549293508392909190612aa490849061374c565b9250508190555080600b6000828254612abd919061374c565b9250508190555081600c6000828254612ad6919061374c565b909155509195945050505050565b634e487b7160e01b600052604160045260246000fd5b600082601f830112612b0b57600080fd5b813567ffffffffffffffff80821115612b2657612b26612ae4565b604051601f8301601f19908116603f01168101908282118183101715612b4e57612b4e612ae4565b81604052838152866020858801011115612b6757600080fd5b836020870160208301376000602085830101528094505050505092915050565b80356001600160a01b0381168114612b9e57600080fd5b919050565b60008060408385031215612bb657600080fd5b823567ffffffffffffffff811115612bcd57600080fd5b612bd985828601612afa565b925050612be860208401612b87565b90509250929050565b60008060408385031215612c0457600080fd5b612c0d83612b87565b9150602083013567ffffffffffffffff811115612c2957600080fd5b612c3585828601612afa565b9150509250929050565b600060208284031215612c5157600080fd5b5035919050565b60005b83811015612c73578181015183820152602001612c5b565b50506000910152565b60008151808452612c94816020860160208601612c58565b601f01601f19169290920160200192915050565b805182526000602082015160e06020850152612cc760e0850182612c7c565b905060408301518482036040860152612ce08282612c7c565b91505060608301516060850152608083015160018060a01b0380821660808701528060a08601511660a0870152505060c0830151151560c08501528091505092915050565b602081526000612d386020830184612ca8565b9392505050565b600060208284031215612d5157600080fd5b612d3882612b87565b60e081526000612d6d60e083018a612c7c565b8281036020840152612d7f818a612c7c565b90508281036040840152612d938189612c7c565b90508281036060840152612da78188612c7c565b6001600160a01b03969096166080840152505060a0810192909252151560c090910152949350505050565b87815260e060208201526000612deb60e0830189612c7c565b8281036040840152612dfd8189612c7c565b606084019790975250506001600160a01b0393841660808201529190921660a082015290151560c0909101529392505050565b60e081526000612e4360e083018a612c7c565b8281036020840152612e55818a612c7c565b90508281036040840152612e698189612c7c565b90508281036060840152612e7d8188612c7c565b90508281036080840152612e918187612c7c565b905082810360a0840152612ea58186612c7c565b91505060018060a01b03831660c083015298975050505050505050565b6000806000806000806000806000806101408b8d031215612ee257600080fd5b8a3567ffffffffffffffff80821115612efa57600080fd5b612f068e838f01612afa565b9b5060208d0135915080821115612f1c57600080fd5b612f288e838f01612afa565b9a5060408d0135915080821115612f3e57600080fd5b612f4a8e838f01612afa565b995060608d0135915080821115612f6057600080fd5b612f6c8e838f01612afa565b985060808d0135915080821115612f8257600080fd5b612f8e8e838f01612afa565b975060a08d0135915080821115612fa457600080fd5b612fb08e838f01612afa565b965060c08d0135915080821115612fc657600080fd5b612fd28e838f01612afa565b955060e08d0135915080821115612fe857600080fd5b612ff48e838f01612afa565b94506101008d013591508082111561300b57600080fd5b6130178e838f01612afa565b93506101208d013591508082111561302e57600080fd5b5061303b8d828e01612afa565b9150509295989b9194979a5092959850565b6020808252825182820181905260009190848201906040850190845b8181101561308e5783516001600160a01b031683529284019291840191600101613069565b50909695505050505050565b6000602080830181845280855180835260408601915060408160051b870101925083870160005b828110156130ef57603f198886030184526130dd858351612ca8565b945092850192908501906001016130c1565b5092979650505050505050565b6000806040838503121561310f57600080fd5b823567ffffffffffffffff8082111561312757600080fd5b61313386838701612afa565b9350602085013591508082111561314957600080fd5b50612c3585828601612afa565b6000806000806080858703121561316c57600080fd5b843567ffffffffffffffff8082111561318457600080fd5b61319088838901612afa565b955060208701359150808211156131a657600080fd5b506131b387828801612afa565b935050604085013591506131c960608601612b87565b905092959194509250565b60008060008060008060c087890312156131ed57600080fd5b863567ffffffffffffffff8082111561320557600080fd5b6132118a838b01612afa565b9750602089013591508082111561322757600080fd5b6132338a838b01612afa565b9650604089013591508082111561324957600080fd5b6132558a838b01612afa565b9550606089013591508082111561326b57600080fd5b6132778a838b01612afa565b9450608089013591508082111561328d57600080fd5b6132998a838b01612afa565b935060a08901359150808211156132af57600080fd5b506132bc89828a01612afa565b9150509295509295509295565b6000602082840312156132db57600080fd5b813567ffffffffffffffff8111156132f257600080fd5b6132fe84828501612afa565b949350505050565b60008351613318818460208801612c58565b60609390931b6bffffffffffffffffffffffff19169190920190815260140192915050565b600181811c9082168061335157607f821691505b60208210810361337157634e487b7160e01b600052602260045260246000fd5b50919050565b601f8211156133c157600081815260208120601f850160051c8101602086101561339e5750805b601f850160051c820191505b818110156133bd578281556001016133aa565b5050505b505050565b815167ffffffffffffffff8111156133e0576133e0612ae4565b6133f4816133ee845461333d565b84613377565b602080601f83116001811461342957600084156134115750858301515b600019600386901b1c1916600185901b1785556133bd565b600085815260208120601f198616915b8281101561345857888601518255948401946001909101908401613439565b50858210156134765787850151600019600388901b60f8161c191681555b5050505050600190811b01905550565b60008083546134948161333d565b600182811680156134ac57600181146134c1576134f0565b60ff19841687528215158302870194506134f0565b8760005260208060002060005b858110156134e75781548a8201529084019082016134ce565b50505082870194505b50929695505050505050565b6001600160a01b0385811682528416602080830191909152608060408301528354600091829161352b8161333d565b80608087015260a060018084166000811461354d576001811461356757613595565b60ff1985168984015283151560051b890183019650613595565b8a6000528560002060005b8581101561358d5781548b8201860152908301908701613572565b8a0184019750505b50505050505082810360608401526135ad8185612c7c565b979650505050505050565b60208082526013908201527215185cdac8191bd95cc81b9bdd08195e1a5cdd606a1b604082015260600190565b602080825260139082015272596f752063616e6e6f7420646f20746869732160681b604082015260600190565b60008251613624818460208701612c58565b9190910192915050565b634e487b7160e01b600052601160045260246000fd5b80820281158282048414176105265761052661362e565b60008261367857634e487b7160e01b600052601260045260246000fd5b500490565b818103818111156105265761052661362e565b6001600160a01b03841681526060602082018190526000906136b490830185612c7c565b82810360408401526136c68185612c7c565b9695505050505050565b6001600160a01b03851681526080602082018190526000906136f490830186612c7c565b6040830194909452506060015292915050565b6001600160a01b038681168252851660208201526040810184905260a06060820181905260009061373a90830185612c7c565b90508260808301529695505050505050565b808201808211156105265761052661362e56fea26469706673582212203caca36806011e09fd7184d54b2faa2faf0e90fbef3c996d39b30c28b790cd7264736f6c63430008110033",
  "devdoc": {
    "author": "Adeyemi",
    "kind": "dev",
    "methods": {
      "addTask(string,string,uint256,address)": {
        "details": "Adds a product to the contract",
        "params": {
          "description": "description of the product",
          "name": "name of product",
          "price": "price of the product",
          "vendor": "vendor's address"
        }
      },
      "generateID(string,address)": {
        "params": {
          "str1": "first string",
          "str2": "second string"
        }
      },
      "lodgeComplaint(string,string)": {
        "params": {
          "complaint": "complaint emits [ComplaintLodged] event",
          "product_name": "name of the product"
        }
      },
      "payForTask(string)": {
        "params": {
          "name": "name of the product"
        }
      },
      "resolveComplaint(address,string)": {
        "params": {
          "customer": "complainer",
          "judgement": "arbitrator's judgement"
        }
      }
    },
    "title": "Link payment and commissions",
    "version": 1
  },
  "userdoc": {
    "kind": "user",
    "methods": {
      "addArbitrator()": {
        "notice": "adds an arbitrator"
      },
      "generateID(string,address)": {
        "notice": "creates a bytes32 array from two strings"
      },
      "lodgeComplaint(string,string)": {
        "notice": "Lodges a complaint"
      },
      "payForTask(string)": {
        "notice": "Pay money for task"
      },
      "paySeller()": {
        "notice": "Pay payable vendor"
      },
      "resolveComplaint(address,string)": {
        "notice": "Complaint resolving"
      },
      "withdraw()": {
        "notice": "owner withdraws money"
      }
    },
    "version": 1
  },
  "storageLayout": {
    "storage": [
      {
        "astId": 69,
        "contract": "contracts/payment_commission.sol:LinkContract",
        "label": "owner",
        "offset": 0,
        "slot": "0",
        "type": "t_address"
      },
      {
        "astId": 74,
        "contract": "contracts/payment_commission.sol:LinkContract",
        "label": "customers",
        "offset": 0,
        "slot": "1",
        "type": "t_mapping(t_address,t_struct(Profile)60_storage)"
      },
      {
        "astId": 79,
        "contract": "contracts/payment_commission.sol:LinkContract",
        "label": "profiles",
        "offset": 0,
        "slot": "2",
        "type": "t_mapping(t_address,t_struct(Profile)60_storage)"
      },
      {
        "astId": 84,
        "contract": "contracts/payment_commission.sol:LinkContract",
        "label": "vendors",
        "offset": 0,
        "slot": "3",
        "type": "t_mapping(t_address,t_struct(Vendor)45_storage)"
      },
      {
        "astId": 89,
        "contract": "contracts/payment_commission.sol:LinkContract",
        "label": "tasks",
        "offset": 0,
        "slot": "4",
        "type": "t_mapping(t_bytes32,t_struct(Task)17_storage)"
      },
      {
        "astId": 93,
        "contract": "contracts/payment_commission.sol:LinkContract",
        "label": "taskNames",
        "offset": 0,
        "slot": "5",
        "type": "t_mapping(t_string_memory_ptr,t_bytes32)"
      },
      {
        "astId": 98,
        "contract": "contracts/payment_commission.sol:LinkContract",
        "label": "complaints",
        "offset": 0,
        "slot": "6",
        "type": "t_mapping(t_address,t_struct(Complaint)30_storage)"
      },
      {
        "astId": 102,
        "contract": "contracts/payment_commission.sol:LinkContract",
        "label": "arbitrator",
        "offset": 0,
        "slot": "7",
        "type": "t_mapping(t_address,t_bool)"
      },
      {
        "astId": 106,
        "contract": "contracts/payment_commission.sol:LinkContract",
        "label": "vendor_C",
        "offset": 0,
        "slot": "8",
        "type": "t_mapping(t_address,t_bool)"
      },
      {
        "astId": 110,
        "contract": "contracts/payment_commission.sol:LinkContract",
        "label": "customer_C",
        "offset": 0,
        "slot": "9",
        "type": "t_mapping(t_address,t_bool)"
      },
      {
        "astId": 112,
        "contract": "contracts/payment_commission.sol:LinkContract",
        "label": "commission_rate",
        "offset": 0,
        "slot": "10",
        "type": "t_uint256"
      },
      {
        "astId": 114,
        "contract": "contracts/payment_commission.sol:LinkContract",
        "label": "outstanding",
        "offset": 0,
        "slot": "11",
        "type": "t_uint256"
      },
      {
        "astId": 117,
        "contract": "contracts/payment_commission.sol:LinkContract",
        "label": "commission_total",
        "offset": 0,
        "slot": "12",
        "type": "t_uint256"
      },
      {
        "astId": 121,
        "contract": "contracts/payment_commission.sol:LinkContract",
        "label": "taskList",
        "offset": 0,
        "slot": "13",
        "type": "t_array(t_struct(Task)17_storage)dyn_storage"
      },
      {
        "astId": 124,
        "contract": "contracts/payment_commission.sol:LinkContract",
        "label": "allVendors",
        "offset": 0,
        "slot": "14",
        "type": "t_array(t_address)dyn_storage"
      }
    ],
    "types": {
      "t_address": {
        "encoding": "inplace",
        "label": "address",
        "numberOfBytes": "20"
      },
      "t_array(t_address)dyn_storage": {
        "base": "t_address",
        "encoding": "dynamic_array",
        "label": "address[]",
        "numberOfBytes": "32"
      },
      "t_array(t_struct(Task)17_storage)dyn_storage": {
        "base": "t_struct(Task)17_storage",
        "encoding": "dynamic_array",
        "label": "struct LinkContract.Task[]",
        "numberOfBytes": "32"
      },
      "t_bool": {
        "encoding": "inplace",
        "label": "bool",
        "numberOfBytes": "1"
      },
      "t_bytes32": {
        "encoding": "inplace",
        "label": "bytes32",
        "numberOfBytes": "32"
      },
      "t_mapping(t_address,t_bool)": {
        "encoding": "mapping",
        "key": "t_address",
        "label": "mapping(address => bool)",
        "numberOfBytes": "32",
        "value": "t_bool"
      },
      "t_mapping(t_address,t_struct(Complaint)30_storage)": {
        "encoding": "mapping",
        "key": "t_address",
        "label": "mapping(address => struct LinkContract.Complaint)",
        "numberOfBytes": "32",
        "value": "t_struct(Complaint)30_storage"
      },
      "t_mapping(t_address,t_struct(Profile)60_storage)": {
        "encoding": "mapping",
        "key": "t_address",
        "label": "mapping(address => struct LinkContract.Profile)",
        "numberOfBytes": "32",
        "value": "t_struct(Profile)60_storage"
      },
      "t_mapping(t_address,t_struct(Vendor)45_storage)": {
        "encoding": "mapping",
        "key": "t_address",
        "label": "mapping(address => struct LinkContract.Vendor)",
        "numberOfBytes": "32",
        "value": "t_struct(Vendor)45_storage"
      },
      "t_mapping(t_bytes32,t_struct(Task)17_storage)": {
        "encoding": "mapping",
        "key": "t_bytes32",
        "label": "mapping(bytes32 => struct LinkContract.Task)",
        "numberOfBytes": "32",
        "value": "t_struct(Task)17_storage"
      },
      "t_mapping(t_string_memory_ptr,t_bytes32)": {
        "encoding": "mapping",
        "key": "t_string_memory_ptr",
        "label": "mapping(string => bytes32)",
        "numberOfBytes": "32",
        "value": "t_bytes32"
      },
      "t_string_memory_ptr": {
        "encoding": "bytes",
        "label": "string",
        "numberOfBytes": "32"
      },
      "t_string_storage": {
        "encoding": "bytes",
        "label": "string",
        "numberOfBytes": "32"
      },
      "t_struct(Complaint)30_storage": {
        "encoding": "inplace",
        "label": "struct LinkContract.Complaint",
        "members": [
          {
            "astId": 19,
            "contract": "contracts/payment_commission.sol:LinkContract",
            "label": "lodger",
            "offset": 0,
            "slot": "0",
            "type": "t_address"
          },
          {
            "astId": 21,
            "contract": "contracts/payment_commission.sol:LinkContract",
            "label": "productName",
            "offset": 0,
            "slot": "1",
            "type": "t_string_storage"
          },
          {
            "astId": 23,
            "contract": "contracts/payment_commission.sol:LinkContract",
            "label": "complaint",
            "offset": 0,
            "slot": "2",
            "type": "t_string_storage"
          },
          {
            "astId": 25,
            "contract": "contracts/payment_commission.sol:LinkContract",
            "label": "judgement",
            "offset": 0,
            "slot": "3",
            "type": "t_string_storage"
          },
          {
            "astId": 27,
            "contract": "contracts/payment_commission.sol:LinkContract",
            "label": "time",
            "offset": 0,
            "slot": "4",
            "type": "t_uint256"
          },
          {
            "astId": 29,
            "contract": "contracts/payment_commission.sol:LinkContract",
            "label": "resolved",
            "offset": 0,
            "slot": "5",
            "type": "t_bool"
          }
        ],
        "numberOfBytes": "192"
      },
      "t_struct(Profile)60_storage": {
        "encoding": "inplace",
        "label": "struct LinkContract.Profile",
        "members": [
          {
            "astId": 47,
            "contract": "contracts/payment_commission.sol:LinkContract",
            "label": "name",
            "offset": 0,
            "slot": "0",
            "type": "t_string_storage"
          },
          {
            "astId": 49,
            "contract": "contracts/payment_commission.sol:LinkContract",
            "label": "email",
            "offset": 0,
            "slot": "1",
            "type": "t_string_storage"
          },
          {
            "astId": 51,
            "contract": "contracts/payment_commission.sol:LinkContract",
            "label": "phoneNumber",
            "offset": 0,
            "slot": "2",
            "type": "t_string_storage"
          },
          {
            "astId": 53,
            "contract": "contracts/payment_commission.sol:LinkContract",
            "label": "homeAddress",
            "offset": 0,
            "slot": "3",
            "type": "t_string_storage"
          },
          {
            "astId": 55,
            "contract": "contracts/payment_commission.sol:LinkContract",
            "label": "role",
            "offset": 0,
            "slot": "4",
            "type": "t_string_storage"
          },
          {
            "astId": 57,
            "contract": "contracts/payment_commission.sol:LinkContract",
            "label": "picture",
            "offset": 0,
            "slot": "5",
            "type": "t_string_storage"
          },
          {
            "astId": 59,
            "contract": "contracts/payment_commission.sol:LinkContract",
            "label": "account",
            "offset": 0,
            "slot": "6",
            "type": "t_address"
          }
        ],
        "numberOfBytes": "224"
      },
      "t_struct(Task)17_storage": {
        "encoding": "inplace",
        "label": "struct LinkContract.Task",
        "members": [
          {
            "astId": 4,
            "contract": "contracts/payment_commission.sol:LinkContract",
            "label": "id",
            "offset": 0,
            "slot": "0",
            "type": "t_bytes32"
          },
          {
            "astId": 6,
            "contract": "contracts/payment_commission.sol:LinkContract",
            "label": "name",
            "offset": 0,
            "slot": "1",
            "type": "t_string_storage"
          },
          {
            "astId": 8,
            "contract": "contracts/payment_commission.sol:LinkContract",
            "label": "description",
            "offset": 0,
            "slot": "2",
            "type": "t_string_storage"
          },
          {
            "astId": 10,
            "contract": "contracts/payment_commission.sol:LinkContract",
            "label": "price",
            "offset": 0,
            "slot": "3",
            "type": "t_uint256"
          },
          {
            "astId": 12,
            "contract": "contracts/payment_commission.sol:LinkContract",
            "label": "vendor",
            "offset": 0,
            "slot": "4",
            "type": "t_address"
          },
          {
            "astId": 14,
            "contract": "contracts/payment_commission.sol:LinkContract",
            "label": "customer",
            "offset": 0,
            "slot": "5",
            "type": "t_address"
          },
          {
            "astId": 16,
            "contract": "contracts/payment_commission.sol:LinkContract",
            "label": "completed",
            "offset": 20,
            "slot": "5",
            "type": "t_bool"
          }
        ],
        "numberOfBytes": "192"
      },
      "t_struct(Vendor)45_storage": {
        "encoding": "inplace",
        "label": "struct LinkContract.Vendor",
        "members": [
          {
            "astId": 32,
            "contract": "contracts/payment_commission.sol:LinkContract",
            "label": "service",
            "offset": 0,
            "slot": "0",
            "type": "t_string_storage"
          },
          {
            "astId": 34,
            "contract": "contracts/payment_commission.sol:LinkContract",
            "label": "file1",
            "offset": 0,
            "slot": "1",
            "type": "t_string_storage"
          },
          {
            "astId": 36,
            "contract": "contracts/payment_commission.sol:LinkContract",
            "label": "file2",
            "offset": 0,
            "slot": "2",
            "type": "t_string_storage"
          },
          {
            "astId": 38,
            "contract": "contracts/payment_commission.sol:LinkContract",
            "label": "file3",
            "offset": 0,
            "slot": "3",
            "type": "t_string_storage"
          },
          {
            "astId": 40,
            "contract": "contracts/payment_commission.sol:LinkContract",
            "label": "account",
            "offset": 0,
            "slot": "4",
            "type": "t_address"
          },
          {
            "astId": 42,
            "contract": "contracts/payment_commission.sol:LinkContract",
            "label": "totalMoney",
            "offset": 0,
            "slot": "5",
            "type": "t_uint256"
          },
          {
            "astId": 44,
            "contract": "contracts/payment_commission.sol:LinkContract",
            "label": "flagged",
            "offset": 0,
            "slot": "6",
            "type": "t_bool"
          }
        ],
        "numberOfBytes": "224"
      },
      "t_uint256": {
        "encoding": "inplace",
        "label": "uint256",
        "numberOfBytes": "32"
      }
    }
  }
}